:1000000012C02CC02BC02AC029C028C027C026C0BF
:1000100025C024C023C023C04BC020C01FC01EC0A9
:100020001DC01CC01BC011241FBECFE5D4E0DEBF25
:10003000CDBF10E0A0E6B0E0EEE9F3E002C005902D
:100040000D92A03AB107D9F711E0A0EAB0E001C0E3
:100050001D92A53CB107E1F7E5D09FC1D1CF1F921A
:100060000F920FB60F9211242F938F939F93EF93BC
:10007000FF939BB12CB1E091C201EF5F8091C3016E
:10008000E81711F482E008C0892F8871E093C2015B
:10009000F0E0E054FF4F20838093C401FF91EF9183
:1000A0009F918F912F910F900FBE0F901F901895D9
:1000B0001F920F920FB60F9211248F939F93EF937D
:1000C000FF939091C0018091C101981761F0E09178
:1000D000C101EF5FEF71E093C101F0E0E056FF4F27
:1000E00080818CB901C05598FF91EF919F918F91BC
:1000F0000F900FBE0F901F9018951092C201109292
:10010000C30108959C011092C0011092C101109288
:10011000C2011092C30197FF03C082E08BB93F7701
:1001200030BD29B988E98AB986E880BD08959091E3
:10013000C2018091C301981719F420E031E011C089
:10014000E091C301EF5FE093C301F0E0E054FF4FA3
:1001500030812091C401922F80E0AC01430F511DEA
:100160009A01C90108955D9BFECF8CB908955D9BEE
:10017000FECF8CB90895FC0104C05D9BFECF319683
:100180008CB980818823C9F7089503C05D9BFECF99
:100190002CB9FC01019624912223C1F70895C39A3A
:1001A000C09A9798C59AC4980895C39AC098979A88
:1001B000C598C49A0895C39AC09A9798C598C49A46
:1001C0000895C39AC59AC498C098979A0895C398F9
:1001D000C498C098C59897980895C39A9798C09A5C
:1001E000C598C4980895C39A9798C098C59AC4981A
:1001F0000895BB9A8F9AB89ABD9ABC9A089596B101
:10020000976096B987B93E9A379A369A349BFECF53
:10021000349A24B130E045B1942F80E0282B392B5B
:10022000C90108958F929F92AF92BF92CF92DF92B1
:10023000EF92FF920F931F93DF93CF93CDB7DEB76B
:1002400028970FB6F894DEBF0FBECDBF8FE084BBFA
:100250008FE290E057DF7894CCDF80E395E728EBDE
:1002600030E0F9013197F1F70197D9F780E690E096
:1002700082DF5E010894A11CB11C95E0C92ED12C2F
:10028000CC0EDD1E88EB882E912C86E790E073DF84
:1002900085E090E0B4DF7C0184E090E0B0DF8C0189
:1002A000C701B5014AE050E035D0C801B6014AE0C7
:1002B00050E030D0C5015FDF8FE790E05CDFC60122
:1002C0005ADF81E890E057DF81E890E054DF81E574
:1002D000E816F1045CF40734110524F084DF84E8A7
:1002E00090E00EC080E5E816F10439F403331105FF
:1002F00024F473DF8EE890E003C051DF89E990E0D9
:100300003ADF80ED97E0F4013197F1F7019709F4B6
:10031000BCCFF9CFFB019F01E8944230BCF04532DD
:10032000ACF44A3029F497FB1EF4909581959F4FC9
:10033000642F77271ED0805D8A330CF0895D81930E
:10034000CB010097A9F716F45DE251931082C90121
:1003500000C0DC01FC01672F71917723E1F7329730
:1003600004C07C916D9370836291AE17BF07C8F390
:100370000895AA1BBB1B51E107C0AA1FBB1FA617EC
:10038000B70710F0A61BB70B881F991F5A95A9F73E
:0E03900080959095BC01CD010895F894FFCFA3
:10039E00494E495449414C495A45205448452053E9
:1003AE00595354454D0057454C434F450A0D0009CE
:1003BE00000A0D006C656674666F720A0D00726934
:1003CE00677468666F720A0D0073746F700A0D00A1
:00000001FF
